:10000000AAC100000C9493140C94BE140C94E9142F
:100010000C9414150C943F150C946A150C949515BA
:100020000C94C015C9C10000C7C10000C5C10000C3
:10003000C3C10000C9C20000BFC10000BDC10000B3
:10004000BBC100000C94E928B7C10000B5C1000095
:100050000C94761CB1C10000AFC100000C94EB15EC
:10006000ABC100000C94DC180C941219A5C100005F
:10007000A3C10000A1C100009FC100009DC10000FC
:100080000C94162999C1000097C1000095C1000089
:100090000C9468190C949E198FC100008DC100004A
:1000A0008BC1000089C100000C94432985C1000068
:1000B00083C1000081C100007FC100000C94702941
:1000C0007BC1000079C1000077C100000C94F419D5
:1000D0000C942A1A71C100000C94801A0C94B61A60
:1000E0006BC100001B171E170D1711171717551797
:1000F000221726172C17301734173A173E174217B6
:10010000551748174C17501786244626B026B32695
:100110008A25BD254524662429248D267C2689260A
:10012000B326B326B326142400000A0B02090C0DD3
:100130000E0807030401000000000000000000009A
:1001400000000000000000000000000000000000AF
:10015000000000001211100000000000000000006C
:10016000000000000000000000000000000001028C
:1001700010202008081020401020408002010201B9
:100180000804020101020408102040808040201071
:1001900008040201800402018040201008040201CA
:1001A0000804020101020408102040800102040832
:1001B000102040800505050507050808080802020B
:1001C00002020A0A080804040404010101010101F1
:1001D00001010303030303030303040707070C0CD4
:1001E0000C0C0C0C0C0C020202020606060606069B
:1001F00006060B0B0B0B0B0B0B0B00002000230058
:10020000260029002C002F0032000001000003010D
:100210000601090100002200250028002B002E0005
:100220003100340002010000050108010B0100004B
:100230002100240027002A002D0030003300010196
:100240000000040107010A01001D3A2774694E539A
:10025000E8F5D2CF9C81A6BBCDD0F7EAB9A4839EA6
:1002600025381F02514C6B76879ABDA0F3EEC9D496
:100270006F7255481B06213C4A57706D3E23041986
:10028000A2BF9885D6CBECF1130E2934677A5D4076
:10029000FBE6C1DC8F92B5A8DEC3E4F9AAB7908D66
:1002A000362B0C11425F78659489AEB3E0FDDAC756
:1002B0007C61465B0815322F5944637E2D30170A46
:1002C000B1AC8B96C5D8FFE2263B1C01524F687536
:1002D000CED3F4E9BAA7809DEBF6D1CC9F82A5B826
:1002E000031E3924776A4D50A1BC9B86D5C8EFF216
:1002F0004954736E3D20071A6C71564B1805223F06
:100300008499BEA3F0EDCAD735280F12415C7B66F5
:10031000DDC0E7FAA9B4938EF8E5C2DF8C91B6ABE5
:10032000100D2A3764795E43B2AF8895C6DBFCE1D5
:100330005A47607D2E3314097F6245580B16312CC5
:10034000978AADB0E3FED9C4F0033B19C719531A1D
:10035000DF1A4B1B721C11241FBECFEFD1E2DEBF90
:10036000CDBF00E00CBF13E0A0E0B2E0EAE5FFE59E
:1003700000E00BBF02C007900D92AC3FB107D9F768
:1003800028E0ACEFB3E001C01D92A238B207E1F75C
:1003900011E0CBEAD1E000E006C021970109802FEF
:1003A000FE010E942A2EC43AD10780E00807A9F76F
:1003B0000E94172B0C94AB2F23CEDC0170E0FB01C5
:1003C000E259FE4FE4911496EC93149750E0FA0131
:1003D000E259FE4FE4911596EC9315976C547E4FBD
:1003E000FB018491E82FF0E0EE0FFF1FEC5EFD4F64
:1003F0008591949117969C938E931697FA01EC54DD
:10040000FE4F449150E0440F551F46505E4FFA0195
:10041000859194911B969C938E931A97FB016491FE
:10042000E62FF0E0EE0FFF1FE25DFD4F8591949106
:1004300019969C938E931897C901253F314014F06B
:1004400084EF91E049E3489F9001499F300D1124CA
:10045000C9014C961D969C938E931C9708950F93FB
:100460001F93CF93DF93EC01E885F98590818C8110
:10047000892B8083EE81FF8190818C8180958923F7
:10048000808384E090E00E949316EE81FF8190814A
:100490008C81892B80838AE090E00E949316EE8104
:1004A000FF8190818C81809589238083E885F985FF
:1004B00090818C818095892380830E943516DC0190
:1004C000CB01805B994BAF4FBF4F8E879F87A88B27
:1004D000B98BEA85FB8590818D81892359F00E9433
:1004E00035160E851F8528893989061717072807AD
:1004F000390778F7EA85FB8590818D81892369F436
:100500000E9435160E851F85288939890617170719
:100510002807390778F780E00FC00E9435162C8530
:100520003D85DC01CB01820F931FA11DB11D8E877C
:100530009F87A88BB98B81E0DF91CF911F910F919D
:1005400008950F931F93CF93DF93EC0188DF811100
:100550000EC080E090E020C00E9435160E851F85F9
:1005600028893989061717072807390790F3EA857C
:10057000FB8590818D81892379F70E9435162C8522
:100580003D85A901455051092E853F85FA01E21BA1
:10059000F30BCF01860F971FDF91CF911F910F9122
:1005A0000895CFDFFC014C9669E370E00E94C52DF1
:1005B00021E030E0EF2B11F420E030E0CB016217B6
:1005C000730708F4C90108951F920F920FB60F9296
:1005D00011240BB60F922F933F934F935F936F931A
:1005E0007F938F939F93AF93BF93EF93FF93E0918C
:1005F000FC03F091FD03309709F01995FF91EF91FD
:10060000BF91AF919F918F917F916F915F914F912A
:100610003F912F910F900BBE0F900FBE0F901F9028
:1006200018954230510509F448C04330510509F48A
:1006300084C04130510509F0C0C0FC01E259FE4FB1
:10064000E491E0932604FB01E259FE4FE491E0932C
:1006500027048C549E4FFC012491E22FF0E0EE0F12
:10066000FF1FEC5EFD4F25913491309329042093B8
:100670002804FB01EC54FE4FE491F0E0EE0FFF1F65
:10068000E650FE4F2591349130932D0420932C0495
:10069000FC018491E82FF0E0EE0FFF1FE25DFD4FBB
:1006A0008591949190932B0480932A0484EA9CE290
:1006B00090932F0480932E040895FC01E259FE4F7D
:1006C000E491E0931404FB01E259FE4FE491E093BE
:1006D00015048C549E4FFC012491E22FF0E0EE0FA4
:1006E000FF1FEC5EFD4F259134913093170420934A
:1006F0001604FB01EC54FE4FE491F0E0EE0FFF1FF7
:10070000E650FE4F2591349130931B0420931A0438
:10071000FC018491E82FF0E0EE0FFF1FE25DFD4F3A
:1007200085919491909319048093180484EA9CE233
:1007300090931D0480931C040895FC01E259FE4F20
:10074000E491E0930204FB01E259FE4FE491E0934F
:1007500003048C549E4FFC012491E22FF0E0EE0F35
:10076000FF1FEC5EFD4F25913491309305042093DB
:100770000404FB01EC54FE4F649170E0660F771F98
:1007800066507E4FFB0125913491309309042093EC
:100790000804FC018491E82FF0E0EE0FFF1FE25DFA
:1007A000FD4F85919491909307048093060484EA09
:1007B0009CE290930B0480930A0408958230910583
:1007C00041F08330910541F0019749F482E294E0D1
:1007D00005C080E194E002C08EEF93E0E2CE089580
:1007E00020E030E040E060E082E294E0E6DD20E0FE
:1007F00030E040E060E080E194E0DFDD20E030E0E8
:1008000040E060E08EEF93E0D8CD4F925F926F9220
:100810007F928F929F92AF92BF92CF92DF92EF9290
:10082000FF9281E090E0CADFBC01990F880B990B21
:1008300060937A0870937B0880937C0890937D087E
:10084000C090E602D090E702E090E802F090E90262
:10085000C616D706E806F9065CF40E94402C6093A1
:100860006A0870936B0880936C0890936D0810C0B1
:100870008091C6029091C702A091C802B091C902AE
:1008800080936A0890936B08A0936C08B0936D08EE
:100890002091CA023091CB024091CC025091CD02FE
:1008A00060916A0870916B0880916C0890916D0856
:1008B0000E94432D181684F48091C2029091C302C5
:1008C000A091C402B091C50280936A0890936B080E
:1008D000A0936C08B0936D082091CE023091CF02A6
:1008E0004091D0025091D10260916A0870916B08DA
:1008F00080916C0890916D080E94A42B6B017C0183
:1009000060936E0870936F088093700890937108DD
:100910002091A6023091A7024091A8025091A9020D
:100920000E94472D2091DA023091DB024091DC02D7
:100930005091DD020E94472D2B013C012091B6020F
:100940003091B7024091B8025091B902C701B60187
:100950000E94472D20913508309136084091370884
:10096000509138080E94A52B6B017C012091390819
:1009700030913A0840913B0850913C08C301B201C4
:100980000E94A42B9B01AC01C701B6010E94A52BBC
:100990006B017C018090BA029090BB02A090BC02D7
:1009A000B090BD02A50194010E94432D181684F059
:1009B0008090B2029090B302A090B402B090B502C1
:1009C000A5019401C701B6010E94092C87FF09C047
:1009D0008092720890927308A0927408B092750881
:1009E00008C0C0927208D0927308E0927408F09226
:1009F00075082091E2023091E3024091E4025091A7
:100A0000E50260917208709173088091740890916A
:100A100075080E94A52B60937608709377088093E1
:100A20007808909379080E947B2C4B015C0120E0B0
:100A300030E040E053E40E94092C87FF0FC020E023
:100A400030E040E053ECC501B4010E94432D87FD26
:100A500007C0C501B4010E940D2C03C06FE701C09F
:100A600060E88091EC02680F8091ED020E94671CA3
:100A7000A7019601609172087091730880917408C3
:100A8000909175080E94A42B2091AE023091AF0284
:100A90004091B0025091B1020E94472D6B017C0140
:100AA00020916E0830916F08409170085091710844
:100AB0006091AA027091AB028091AC029091AD025C
:100AC0000E94472D9B01AC01C701B6010E94A52BD6
:100AD0002091D2023091D3024091D4025091D5029C
:100AE0000E94472D9B01AC0160913508709136083A
:100AF00080913708909138080E94A52B60933508A3
:100B000070933608809337089093380840923908DC
:100B100050923A0860923B0870923C0881E090E065
:100B20000E943F144091590850915A0860915B0807
:100B300070915C0880E090E00E943B148090650812
:100B400090906608A0906708B090680820E030E0B8
:100B500040E85FEBC501B4010E94092C882331F104
:100B6000C0905908D0905A08E0905B08F0905C085B
:100B7000A7019601C501B4010E94A42B4B015C01A1
:100B800020E030E040E054E3C701B6010E94472D69
:100B90009B01AC01C501B4010E94432D181634F02D
:100BA00082E093E090934408809343088091690821
:100BB000882331F082E093E09093440880934308C7
:100BC00080915D0890915E08A0915F08B0916008E7
:100BD000BC01CD016F5F7F4F8F4F9F4F60935D08CA
:100BE00070935E0880935F08909360080E943E2C8B
:100BF0002091610830916208409163085091640827
:100C00000E94472D6093590870935A0880935B089F
:100C100090935C08FF90EF90DF90CF90BF90AF90E3
:100C20009F908F907F906F905F904F900895EF927C
:100C3000FF920F931F93CF93DF93E3E4F8E087E2F3
:100C4000DF011D928A95E9F780E090E0A0E8BFEB14
:100C500082A393A3A4A3B5A38DEC9CECACE4BEE368
:100C6000868F978FA0A3B1A382EB91E8A4EDBDE698
:100C700084839583A683B7838BE39BECA1EEB5E0D9
:100C800080879187A287B38781E098EAA2E8B2E6DD
:100C900084879587A687B78784EA95E3AAEEB2E3AF
:100CA000808B918BA28BB38BAEE4B4E0B383A28331
:100CB000C6E4D4E01196DC93CE9388E993E099835F
:100CC00088839B838A839D838C839F838E8387E520
:100CD00098E015969C938E93149787E498E013966A
:100CE0009C938E93129789E598E017969C938E9328
:100CF000169784E1AAE6B8E0ED01982F19929A952B
:100D0000E9F79FE2E92E98E0F92ED7011D928A9526
:100D1000E9F7A4E3B4E082E1ED0119928A95E9F7DD
:100D2000B58BA48B8FE090E011969C938E9388E80E
:100D300092E013969C938E9312978AE692E0159612
:100D40009C938E9314978EE392E017969C938E93C8
:100D500016978AE092E019969C938E93189781E0FB
:100D600090E0A0E0B0E0F70181839283A383B48395
:100D700041E050E066E070E087E090E052DC81E026
:100D8000D70115968C9306EA12E0E801688D8091F0
:100D9000ED020E945C1C88A999A9AAA9BBA9F70128
:100DA00086839783A087B18788AD99ADAAADBBAD87
:100DB00082879387A487B587DF91CF911F910F9189
:100DC000FF90EF90089580912F08811103C081E07A
:100DD00080932F080895EF92FF920F931F93CF9364
:100DE000DF93DC01EA01F90114968D919C9115972E
:100DF00012960D911C911397080F191F28813981A4
:100E000018964D915C9119974217530728F04D9110
:100E10005C911197452B39F17801E21AF30A189683
:100E20004D915C911997481B590B4E0D5F1D46174C
:100E3000570794F1A901460F571F40175107E0F0DB
:100E4000F182E082338322836E197F097583648384
:100E5000161617061CF4382F292F02C030E020E0A8
:100E60003683278313C018968D919C911997821B06
:100E7000930B8617970784F07183608333832283F3
:100E8000158214821782168288819981680F791FD2
:100E90007983688380E001C081E0DF91CF911F9169
:100EA0000F91FF90EF900895CF92DF92EF92FF9213
:100EB000CF93DF936B017C0184E48C9DE0018D9DD9
:100EC000D00D1124C65ADB4F8AA99BA9009721F0A7
:100ED0000E94FA2E1BAA1AAA84E48C9DF0018D9D13
:100EE000F00D1124E65AFB4F86A997A9009711F03F
:100EF0000E94FA2E84E48C9DF0018D9DF00D11244A
:100F0000E65AFB4F138A128A168A178A108E118EA0
:100F1000128E138E148E158E168E178E10A211A29D
:100F200081E090E093A382A315A214A216A217A2B7
:100F300010A611A613A612A615A614A616A617A6E5
:100F400010AA11AA13AA12AA15AA14AA17AA16AAB5
:100F500011AE10AE12AE13AE14AE15AEDF01DE96BA
:100F60001D921D921D921C921397EE5BFF4F1182F2
:100F70001082DF91CF91FF90EF90DF90CF90089596
:100F80000F931F93CF93DF93EB01DC018D919C9125
:100F9000FC01A681B781E881F98123E0EE0FFF1FF4
:100FA0002A95E1F712962D913C911397E20FF31FCA
:100FB00000811181AC85BD859D01220F331FDC01AD
:100FC00012968D919C911397D901A80FB91F8D91FD
:100FD0009C9124813581232B19F461E070E002C0DB
:100FE00062E070E0689F9001699F300D789F300D3E
:100FF000112488859985289FB001299F700D389FFD
:10100000700D1124EC81FD812E9FC0012F9F900D4A
:101010003E9F900D1124800F911FFA0191838083D0
:1010200073836283DF91CF911F910F9108952F9267
:101030003F924F925F926F927F928F929F92AF9268
:10104000BF92CF92DF92EF92FF920F931F93CF93B5
:10105000DF9300D000D0CDB7DEB7DC011496ED9160
:10106000FC9115970190F081E02D808591859A8300
:101070008983A281B381BC83AB83FB018190919072
:10108000A190B1908F01C12CD12C7601C814D90444
:10109000EA04FB040CF05FC0D80114964D905D90FB
:1010A0006D907C90179718964D915D916D917C9104
:1010B0001B97F8017096FE83ED83F801A081B18142
:1010C00083E0AA0FBB1F8A95E1F7E981FA8182814B
:1010D0009381A80FB91F2D903C901197F80124859A
:1010E0003585220F331F8B819C81280F391FF90111
:1010F0000081118114968D919C911597892B19F47B
:1011000081E090E002C082E090E0809F9001819FAA
:10111000300D909F300D1124249F8001259F100DCC
:10112000349F100D1124249DC001259D900D349DE8
:10113000900D1124A8016D817E81820D931D0E9466
:10114000922F8D819E81080F191F9FEFC91AD90A0E
:10115000E90AF90A9BCF26960FB6F894DEBF0FBEB8
:10116000CDBFDF91CF911F910F91FF90EF90DF9056
:10117000CF90BF90AF909F908F907F906F905F9037
:101180004F903F902F900895CF93DF93DB01A251B2
:10119000BD4F2C91222369F024E4269FF001279F64
:1011A000F00D1124E65AFB4FEF0119922A95E9F749
:1011B0001C9224E4269FF001279FF00D1124E65A8B
:1011C000FB4F1482158216821782118610861386B1
:1011D0001286118A108A17861686DF91CF9164CE07
:1011E0002F923F924F925F926F927F928F929F9237
:1011F000AF92BF92CF92DF92EF92FF920F931F9325
:10120000CF93DF93CDB7DEB728970FB6F894DEBF44
:101210000FBECDBF6B017C011A0184E48C9D90014F
:101220008D9D300D1124265A3B4FF9018481958103
:10123000A681B781892B8A2B8B2B09F4B8C0A12CEE
:10124000B12C412C512C320138872F83C9010496CF
:101250009A838983D9011896BC83AB83E981FA818B
:1012600080819181A281B381481659066A067B0666
:1012700094F5AB81BC81ED91FC91EA0DFB1D2281BF
:1012800033818901812C912C82149304C4F4D801F8
:10129000ED91FC91309769F0848195812D833E8397
:1012A0000E94FA2EF801808191810E94FA2E3E81DF
:1012B0002D81FFEF8F1A9F0A0E5F1F4FE5CFC901E7
:1012C0000E94FA2E8FEF481A580A680A780A94E0AA
:1012D000A90EB11CC3CFAF81B88518968D919C9192
:1012E00019970E94FA2EEF81F88582859385892BC4
:1012F00059F1A12CB12C812C912C84E48C9D80017E
:101300008D9D100D11240C591B4F8214930484F4ED
:10131000D801ED91FC91EA0DFB1D848195810E941D
:10132000FA2EBFEF8B1A9B0AEEE0AE0EB11CEDCF8A
:1013300084E48C9DF0018D9DF00D1124E65AFB4F45
:10134000828593850E94FA2E84E48C9D90018D9D68
:10135000300D11248901065A1B4FD80150968D91EA
:101360009C9151970E94FA2EF801868597850E94DC
:10137000FA2EC701B60198DDC701B60128960FB64F
:10138000F894DEBF0FBECDBFDF91CF911F910F91BB
:10139000FF90EF90DF90CF90BF90AF909F908F9095
:1013A0007F906F905F904F903F902F90EDCE28965A
:1013B0000FB6F894DEBF0FBECDBFDF91CF911F9166
:1013C0000F91FF90EF90DF90CF90BF90AF909F90E4
:1013D0008F907F906F905F904F903F902F900895E7
:1013E00024E4269FF001279FF00D1124E65AFB4FBD
:1013F000828993890497029758F485E090E0938B53
:10140000828B8FEF9FEFDC01828F938FA48FB58F3C
:1014100008952F923F924F925F926F927F928F9298
:101420009F92AF92BF92CF92DF92EF92FF920F9373
:101430001F93CF93DF93CDB7DEB7E0970FB6F89445
:10144000DEBF0FBECDBF9AA389A31B016A0128018D
:10145000390184E4849D8001859D100D112498013B
:10146000265A3B4F7901D9014D925D926D927C9243
:101470001397AB01C301B201B3DEF801E25AFB4F8F
:10148000D6014D915D916D917D918D01CA01408391
:1014900051836283738364E070E00E944B2EF701F6
:1014A00091878087892B09F499C11E8E1D8E198E14
:1014B0001A8E1B8E1C8EF8A2EF8E97012C5F3F4F69
:1014C00038A72FA32C5F3F4F3AA729A7EFA1F8A574
:1014D00080819181A281B381298D3A8D4B8D5C8D64
:1014E000281739074A075B070CF0E4C0A9A5BAA57D
:1014F0008D919C912D8D3E8D280F391F3A8B298B14
:10150000D801ED91FC91EE0FFF1FA9A1BAA18D9119
:101510009C91E80FF91F80819181F901918380836B
:10152000D80114962D913D914D915C9117972BA365
:101530003CA34DA35EA3085F1F4F62E070E0C101B2
:101540000E944B2EE989FA8993838283892B09F4BF
:1015500045C11D8A1E8A1F8A188E2D893E894F8992
:10156000588D8BA19CA1ADA1BEA1281739074A07B0
:101570005B070CF08CC0D801ED90FC90EE0CFF1CCA
:10158000E989FA89C280D380CE0CDF1C68E070E064
:1015900081E090E00E944B2ED6018D939C93E989C7
:1015A000FA8982819381FC01EE0DFF1DC080D180FC
:1015B000C114D10409F412C1D80114964D915D9162
:1015C0006D917C911797CA01F60140835183628324
:1015D0007383085F1F4F64E070E00E944B2ED601BA
:1015E00015969C938E931497892B09F4F7C01C8A47
:1015F0001B8A812C912C5401F60180819181A2815A
:10160000B38188169906AA06BB06A4F5F601E48004
:10161000F5802B893C89E20EF31EF801DE0111965C
:1016200080E101900D928A95E1F7005F1F4FA701BD
:10163000BE016F5F7F4FA9A1BAA114968D919C91B5
:1016400015979EDCF60126813781D70112968D9180
:101650009C911397820F931F97838683BFEF8B1AFA
:101660009B0AAB0ABB0A2B893C892C5F3F4F3C8B02
:101670002B8BC2CF2D893E894F89588D2F5F3F4FCD
:101680004F4F5F4F2D8B3E8B4F8B588F66CF298DE1
:101690003A8D4B8D5C8D2F5F3F4F4F4F5F4F298FA2
:1016A0003A8F4B8F5C8F2D8D3E8D2C5F3F4F3E8F41
:1016B0002D8F0CCF6EE070E0C1010E944B2EAF8DDC
:1016C000B8A11B969C938E931A97812C912CA12CD8
:1016D000B12CC12CD12C24E4249DC001259D900D5A
:1016E00011249C012C593B4F3A8B298B21E030E08F
:1016F000A214B3040CF04AC0D8014D915D916D91D4
:101700007D918D01CA01E989FA89E080F180E80CB8
:10171000F91C57FD63C0D70111963C932E93009797
:10172000A1F02FA738AB4BA75CA76DA77EA70E949F
:10173000652EF701958384832FA538A94BA55CA559
:101740006DA57EA5892B31F449C0D70115961C9251
:101750001E921497F7015383428384819581978366
:101760008683918780871386128681E090E0452BDF
:10177000462B472B11F480E090E0C80ED91EFFEFF6
:10178000AF1ABF0A4EE0840E911CB2CF84E4849D50
:101790008001859D100D1124065A1B4FD8011D96FE
:1017A0001C921E921C97C60133E0880F991F3A9530
:1017B000E1F70E94652EF801918B808B892B71F0E7
:1017C000C601880F991F0E94652ED8011F969C9311
:1017D0008E931E97892B11F080E005C0A101C301F3
:1017E000B201FEDC81E0E0960FB6F894DEBF0FBEDA
:1017F000CDBFDF91CF911F910F91FF90EF90DF90C0
:10180000CF90BF90AF909F908F907F906F905F90A0
:101810004F903F902F9008952F923F924F925F925A
:101820006F927F928F929F92AF92BF92CF92DF92F0
:10183000EF92FF920F931F93CF93DF93CDB7DEB755
:1018400068970FB6F894DEBF0FBECDBF9C8B8B8B15
:10185000DB0149015A0124E4289DC001299D900D16
:1018600011249C01265A3B4F79012D913C911197EF
:10187000F701358B248BFC01E059FB4F14964D91F9
:101880005D916D917C91179740835183628373833F
:10189000FC01EC58FB4F18964D915D916D917C9138
:1018A0001B974083518362837383FC01E858FB4F8D
:1018B0001C964D915D916D917C911F974083518352
:1018C00062837383FC01E857FB4F50965C915097FD
:1018D00051964C91519752963C91529753962C9118
:1018E000539750834183328323838D010C5E1F4FB6
:1018F000852F942F181619060CF068C0880F991FB1
:10190000880F991F0E94652ED701D3969C938E93C2
:10191000D297892B09F4BCC0212C312C412C512C9D
:1019200032019701225D3F4F3E8B2D8B2C5F3F4F45
:10193000388F2F8B2E5F3F4F3A8B298BB301A2013B
:101940002FEF421A520A620A720AED89FE898081DB
:101950009181A281B381481759076A077B074CF52B
:10196000AF89B88DCD90DC90C20CD31CF801DE019C
:10197000119680E101900D928A95E1F7005F1F4F6B
:10198000A601BE016F5F7F4FEB89FC898481958141
:10199000F7DAA989BA898D919C911197F601228174
:1019A0003381820F931F8D939C93F4E02F0E311C93
:1019B000C5CFD701D4968D919C91D5970E94652E65
:1019C000F70197AB86AB892B09F462C0F8018081DF
:1019D0009181A281B38124E4289DF001299DF00D1D
:1019E0001124E65AFB4FAC01BD014D7F21E030E0F0
:1019F000452B462B472B11F020E030E033A322A3E8
:101A000024E4289DF001299DF00D1124E65AFB4F96
:101A10000197A109B10921E030E00297A105B105C4
:101A200010F020E030E035A324A384E4889DF00189
:101A3000899DF00D1124CF0180589B4FD801149639
:101A40004D915D916D917C911797DC014D935D9364
:101A50006D937C931397E65AFB4F868D978DA0A1CB
:101A6000B1A1B7FF10C0B095A095909581959F4FFB
:101A7000AF4FBF4F82AF93AFA4AFB5AF168E178EE7
:101A800010A211A20AC012AE13AE14AE15AE05C05C
:101A9000C501B40109DA81E001C080E068960FB6A3
:101AA000F894DEBF0FBECDBFDF91CF911F910F9194
:101AB000FF90EF90DF90CF90BF90AF909F908F906E
:101AC0007F906F905F904F903F902F900895CF92AE
:101AD000DF92EF92FF92CF93DF931092E20424E41F
:101AE000269FF001279FF00D1124E65AFB4F15A603
:101AF00014A620E030E0C12CD12CDF011A96C1E001
:101B0000D0E0C416D506D4F4ED91FC911197E20F04
:101B1000F31FE280F3801E141F0454F4E480F58068
:101B2000F782E682F186E08613861286D183C0832F
:101B3000EFEFCE1ADE0A225F3F4FE3CF24E4269F69
:101B4000F001279FF00D1124E65AFB4F13A612A6B1
:101B500011AE10AEDF01DE961D921D921D921C92F9
:101B6000139782E090E0938B828BDF91CF91FF906F
:101B7000EF90DF90CF90089524E4269FF001279FF7
:101B8000F00D1124E65AFB4F138A128A29CB24E464
:101B9000269FF001279FF00D1124E65AFB4F828902
:101BA000938981309105C8F08530910518F005972B
:101BB00069F008958FEF9FEFDC01828F938FA48FE0
:101BC000B58F85E090E0938B828B08958FEF9FEF28
:101BD000DC01828F938FA48FB58F089524E4249F16
:101BE000F001259FF00D1124E65AFB4F2EE0AC01C9
:101BF000249FC001259F900D11240284F385E02DC0
:101C0000E80FF91F81E08093E20482859385918734
:101C10008087408551852681378181E090E0421799
:101C2000530711F080E090E09183808308952F9214
:101C30003F924F925F926F927F928F929F92AF925C
:101C4000BF92CF92DF92EF92FF920F931F93CF93A9
:101C5000DF93CDB7DEB7C255D1090FB6F894DEBF1A
:101C60000FBECDBF21969FAF8EAF21974BA75CA72C
:101C70006DA77EA74801590184E4889D8001899D54
:101C8000100D1124F801E65AFB4F22853385279663
:101C90003FAF2EAF279782899389029709F060C1E1
:101CA00086A597A5A0A9B1A9892B8A2B8B2B29F4EE
:101CB00084E090E0938B828B53C18489958921962F
:101CC0004EAD5FAD21974817590709F049C186A964
:101CD00097A99AAB89AB1EAE1DAE19AE1AAE1BAE5C
:101CE0001CAE8F01DF019E962996BFAFAEAF29973C
:101CF000F2962B96FFAFEEAF2B979801285C3F4FE3
:101D00002D963FAF2EAF2D97A8014A5D5F4F2F96BE
:101D10005FAF4EAF2F97C801829661969FAF8EAF8F
:101D200061971A976396BFAFAEAF63972996EEADF2
:101D3000FFAD299780819181A281B38129AD3AAD10
:101D40004BAD5CAD281739074A075B070CF0E7C0BD
:101D50002B96EEADFFAD2B97808191812DAD3EADE1
:101D6000280F391F3EAB2DABD90112960D90BC91B7
:101D7000A02D2396BFAFAEAF2397B695A795B69586
:101D8000A7952596BFAFAEAF25972D96EEADFFADCB
:101D90002D9780819181892B09F496C02F96AEAD45
:101DA000BFAD2F97CD90DD90ED90FC9029A83AA87B
:101DB000F9010190F081E02DF8ABEFA718AE1FAA52
:101DC0008FA998AD2596AEADBFAD25978A179B0715
:101DD0000CF07AC06196AEADBFAD61978D919C91CC
:101DE000892B69F1EFA5F8A940805180628073804A
:101DF000A7019601C301B2010E94432D87FD0BC0CC
:101E0000A7019601D1016D917D918D919C910E94C8
:101E1000092C87FD8CC0A7019601C301B2010E9465
:101E2000432D181664F4A7019601F10160817181B8
:101E3000828193810E94092C882309F478C06396DB
:101E4000AEADBFAD63978D919C91892B69F1EFA5E4
:101E5000F8A94080518062807380A7019601C30178
:101E6000B2010E94092C87FF0BC0A7019601D10186
:101E70006D917D918D919C910E94432D87FF57C05C
:101E8000A7019601C301B2010E94092C81110CC067
:101E9000A7019601F10160817181828193810E9485
:101EA000432D18160CF443C02FA938AD2F5F3F4FB8
:101EB00038AF2FAB34E0230E311C4FA558A94C5F2F
:101EC0005F4F58AB4FA77CCFEDA9FEA96081718110
:101ED00023964EAD5FAD239789A99AA90E94922FB0
:101EE00025968EAD9FAD2597880F991F880F991F56
:101EF00029A93AA9280F391F3AAB29AB89AD9AAD68
:101F0000ABADBCAD0196A11DB11D89AF9AAFABAF12
:101F1000BCAFADADBEAD1496BEAFADAF07CF81E0E7
:101F200090E0D801D9969C938E93D89719C084E4F9
:101F3000889DF001899DF00D1124E65AFB4F868D96
:101F4000978DA0A1B1A1892B8A2B8B2B09F064C29C
:101F500084E090E0938B828B86AD97AD93A782A7A8
:101F600084E4889DF001899DF00D1124E65AFB4F11
:101F7000828993898230910571F482AD93ADA4ADCD
:101F8000B5AD181619061A061B060CF04CC2CC2467
:101F9000C394D12C05C0049709F045C2C12CD12CA3
:101FA0008EE02196EEADFFAD21978E9F70018F9F41
:101FB000F00C112427962EAD3FAD2797E20EF31EAD
:101FC000D70112964D915C9113974115510509F473
:101FD0002AC216968D919C9117979AA789A7FE0100
:101FE000319684E1DF011D928A95E9F7898A9A8A00
:101FF000AB8ABC8AC114D10409F457C084E4889D1B
:10200000F001899DF00D1124E65AFB4FDF01DE96A9
:102010004D905D906D907C9082AD93ADA4ADB5ADCB
:10202000481659066A067B0609F03FC0F70164812D
:1020300075810084F185E02D84819581A681B78129
:102040009C018D8B9E8BAF8BB88F285F3F4F3E8B53
:102050002D8BD70118968D919C911997280F391FB8
:1020600019963C932E93189718968D919C911997D9
:10207000460F571F841B950B97FD06C0860F971FB1
:1020800019969C938E93189784E4889DF001899DFE
:10209000F00D1124E856FB4FB1E04B1A51086108CE
:1020A000710840825182628273829E012B5E3F4F93
:1020B000AE01475D5F4F64E170E0C7010E94EB062F
:1020C000082F10E00115110509F091C18CE090E096
:1020D000A0E0B0E08D839E83AF83B8879E01235E2E
:1020E0003F4FAE01475D5F4F64E070E0C7010E9463
:1020F000EB06082F10E00115110509F078C180E109
:1021000090E0A0E0B0E08D839E83AF83B8874D8DD3
:102110005E8DBE01655D7F4F8F8D98A10E94922FCD
:102120008BA19CA1009761F06D8D7E8DEBE2F0E0BC
:10213000EC0FFD1F6E0F7F1F49A15AA10E94922F25
:102140001DA21EA21FA218A621962EAD3FAD21975B
:10215000220F331F38AF2FAB24E4289DC001299DE7
:10216000900D1124865A9B4FAC014C5F5F4F5AAFC4
:1021700049AFDC011896BEAFADAF2DA13EA14FA176
:1021800058A529AB3AAB4BAB5CABE9ADFAAD80815E
:102190009181A281B381281739074A075B070CF0A8
:1021A000CFC0ADADBEADED91FC9189A99AA9880FC4
:1021B000991F880F991FE80FF91FA081B1818C9199
:1021C000882309F4AFC0833009F4ACC00280F381E6
:1021D000E02D2FA938ADE20FF31F4081518158AB9C
:1021E0004FA7452B09F49EC089859A85AB85BC8590
:1021F0000196A11DB11D89879A87AB87BC879E0177
:10220000235E3F4FAE01475D5F4F64E070E0C70162
:102210000E94EB0690E0009709F0E8C08D819E8156
:10222000AF81B8850496A11DB11D8D839E83AF83B8
:10223000B8874D8D5E8DBE016B5D7F4F8F8D98A1F0
:102240000E94922F8BA19CA1009761F06D8D7E8DD5
:10225000A5E2B0E0AC0FBD1F6A0F7B1F49A15AA1D8
:102260000E94922F1EAA1DAA412C512C3201EFA5CB
:10227000F8A980819181A281B381481659066A0626
:102280007B060CF04FC0EFA5F8A9248035802DA95E
:102290003EA9220E331ED10112966D917C911397A7
:1022A0009E01235E3F4FAE01475D5F4FC7010E9415
:1022B000EB0690E0009709F099C0F10182819381CB
:1022C000092E000CAA0BBB0B4D815E816F817885B6
:1022D000840F951FA61FB71F8D839E83AF83B8877A
:1022E000608171814D8D5E8D8F8D98A10E94922F9E
:1022F0008BA19CA1009759F0D1016D917C912D8DFE
:102300003E8D620F731F49A15AA10E94922FBFEF09
:102310004B1A5B0A6B0A7B0AEDA9FEA93496FEAB49
:10232000EDABA5CF49A85AA86BA87CA8FFEF4F1A20
:102330005F0A6F0A7F0A4DA25EA26FA278A61DCF28
:1023400089859A85AB85BC85892B8A2B8B2B09F4D3
:102350004EC08AE190E0A0E0B0E089839A83AB832D
:10236000BC8321962EAD3FAD2197C901330FAA0B37
:10237000BB0B8D879E87AF87B88B4D895E89BE0169
:102380006F5F7F4F8F89988D0E94922F8B8D9C8DD0
:10239000009761F06D897E8941E050E04C0F5D1F30
:1023A000640F751F498D5A8D0E94922F89A59AA599
:1023B000D70117969C938E93169711961C921E9296
:1023C000CD2889F184E4889DF001899DF00D1124C8
:1023D000E856FB4F80819181A281B3810196A11DB6
:1023E000B11D80839183A283B3831DC08C01CD284E
:1023F000D1F4012BC1F084E4889DF001899DF00D9A
:102400001124E65AFB4F81E090E095A784A785E070
:1024100090E0938B828B07C083E090E0938B828B5C
:1024200081E090E09BCDCE5ADF4F0FB6F894DEBF2F
:102430000FBECDBFDF91CF911F910F91FF90EF9015
:10244000DF90CF90BF90AF909F908F907F906F90D4
:102450005F904F903F902F900895CF92DF92EF9230
:10246000FF920F931F936B017C0184E48C9DF0011C
:102470008D9DF00D1124E65AFB4F828993890097B8
:1024800009F450C00197B9F482A593A59C012F5F70
:102490003F4F33A722A7092E000CAA0BBB0B028DBE
:1024A000138D248D358D80179107A207B307D1F5C1
:1024B000C701B6010CDB84E48C9DF0018D9DF00D0D
:1024C0001124E65AFB4F82899389039759F582A517
:1024D00093A59C012F5F3F4F33A722A7092E000C25
:1024E000AA0BBB0B468D578D60A171A18417950770
:1024F000A607B707BCF086AD97AD93A782A784E087
:1025000090E0938B828B82AD93ADA4ADB5AD1816E0
:1025100019061A061B0634F4EE5BFF4F81E090E0CB
:10252000918380831F910F91FF90EF90DF90CF9068
:10253000089524E4269FF001279FF00D1124E65A08
:10254000FB4F828993890497B1F482A593A50196E4
:1025500093A782A7092E000CAA0BBB0B46895789AB
:10256000608D718D84179507A607B70721F485E064
:1025700090E0938B828B08952F923F924F925F92BF
:102580006F927F928F929F92AF92BF92CF92DF9283
:10259000EF92FF920F931F93CF93DF93CDB7DEB7E8
:1025A0002E970FB6F894DEBF0FBECDBF49835A8376
:1025B0006B837C834901442E552E24E4249DF00135
:1025C000259DF00D1124E65AFB4F22883388910196
:1025D00024503109158614862230310508F0DDC0FB
:1025E000DC0111961C921E9213961C921E92129759
:1025F000A12CB12C60E070E09F01265F3F4F38872F
:102600002F837F013CE0E30EF11CDF015096BA8777
:10261000A9879F01225F3F4F3C872B87681579056B
:102620000CF06FC0EF81F885A081B1819D012A0D6A
:102630003B1D3E872D87D9012D913C911197232B6E
:1026400009F059C018960D911C9119971296ED91A9
:10265000FC911397FE83ED8316962D913C9117976D
:10266000D7014D915C91DA01E3E0AA0FBB1FEA9517
:10267000E1F7E985FA85C080D180FD01EC0DFD1DF3
:10268000440F551FAB85BC85CD90DC904C0D5D1D76
:10269000DA016D937C93D7014D915C9111974F5F57
:1026A0005F4F4D935C9313830283AD85BE851B966C
:1026B0003C932E931A970217130748F4201B310BF3
:1026C00031832083158214821782168214C0AD854F
:1026D000BE851496CD90DC9015974D815E814C0D92
:1026E0005D1D401B510B518340832C193D093583DF
:1026F0002483D782C6826F5F7F4FBEE0AB0EB11CD2
:102700008DCF24E4249D8001259D100D1124065AAF
:102710001B4FF80124853585DC0111963C932E93DF
:102720004089518913965C934E931297468557853D
:1027300015965C934E931497232BA1F5B5E02B16B9
:10274000310481F51092E204828D938DA48DB58DB4
:10275000AE014F5F5F4F64E070E08F3F9F4FAF4F20
:10276000BF4F59F480E290E00E94142069817A8181
:102770008B819C81A40100DA15C08FE190E00E945A
:102780001420D8019B961C921E929A9781E090E0AB
:1027900053969C938E93529705C0FC011182108230
:1027A000138212822E960FB6F894DEBF0FBECDBFF5
:1027B000DF91CF911F910F91FF90EF90DF90CF901D
:1027C000BF90AF909F908F907F906F905F904F9051
:1027D0003F902F900895EF92FF920F931F93CF9306
:1027E000DF937C018B01EA010E949720811121C0B7
:1027F0008091F0029091F102049711F183E090E052
:102800009093F1028093F0021BC098819111F0CF58
:1028100028ED38EB45E050E060E070E0CB010E942D
:102820002123AE01B801C7010E942F23C8010E94D5
:10283000FA228091E3049091E404892B31F3D8CFFC
:10284000DF91CF911F910F91FF90EF900895CF935B
:10285000DF932091F0023091F1022430310541F0F4
:10286000EB010E942F23CE01DF91CF910C94FA222D
:10287000DF91CF9108950C9445270C943A270C943E
:1028800028270C940A230C94CB26089560E070E06E
:1028900080E090E00C9472200895AF92BF92CF92A6
:1028A000DF92EF92FF920F931F93CF93DF931F92CC
:1028B0001F92CDB7DEB75C0169017A018B0180E020
:1028C00090E0C114D104E104F104F1F0C114D10489
:1028D00021E0E206F10410F4A60102C04FEF5FEF21
:1028E0009E012F5F3F4FB801C5010E94E8278F3F2F
:1028F0002FEF920749F029813A81C21AD30AE108E1
:10290000F108020F131FDDCF0F900F90DF91CF91D1
:102910001F910F91FF90EF90DF90CF90BF90AF90FD
:102920000895089508951F920F920FB60F921124E3
:102930000BB60F922F933F934F935F936F937F93B9
:102940008F939F93AF93BF93EF93FF93E091F60222
:10295000F091F7021995FF91EF91BF91AF919F917F
:102960008F917F916F915F914F913F912F910F9038
:102970000BBE0F900FBE0F901F9018951F920F92D5
:102980000FB60F9211240BB60F922F933F934F93D4
:102990005F936F937F938F939F93AF93BF93EF93C7
:1029A000FF93E091F802F091F9021995FF91EF91F0
:1029B000BF91AF919F918F917F916F915F914F9157
:1029C0003F912F910F900BBE0F900FBE0F901F9055
:1029D00018951F920F920FB60F9211240BB60F92FB
:1029E0002F933F934F935F936F937F938F939F9317
:1029F000AF93BF93EF93FF93E091FA02F091FB0244
:102A00001995FF91EF91BF91AF919F918F917F9118
:102A10006F915F914F913F912F910F900BBE0F904F
:102A20000FBE0F901F9018951F920F920FB60F9226
:102A300011240BB60F922F933F934F935F936F9395
:102A40007F938F939F93AF93BF93EF93FF93E09107
:102A5000FC02F091FD021995FF91EF91BF91AF91AA
:102A60009F918F917F916F915F914F913F912F91A6
:102A70000F900BBE0F900FBE0F901F9018951F92D6
:102A80000F920FB60F9211240BB60F922F933F9314
:102A90004F935F936F937F938F939F93AF93BF9366
:102AA000EF93FF93E091F202F091F3021995FF91F9
:102AB000EF91BF91AF919F918F917F916F915F91B6
:102AC0004F913F912F910F900BBE0F900FBE0F9023
:102AD0001F9018951F920F920FB60F9211240BB6EC
:102AE0000F922F933F934F935F936F937F938F93A7
:102AF0009F93AF93BF93EF93FF93E091F402F09114
:102B0000F5021995FF91EF91BF91AF919F918F9130
:102B10007F916F915F914F913F912F910F900BBEDD
:102B20000F900FBE0F901F9018951F920F920FB627
:102B30000F9211240BB60F922F933F934F935F93F5
:102B40006F937F938F939F93AF93BF93EF93FF9375
:102B5000E091FE02F091FF021995FF91EF91BF9174
:102B6000AF919F918F917F916F915F914F913F9125
:102B70002F910F900BBE0F900FBE0F901F901895C6
:102B80001F920F920FB60F9211240BB60F922F9334
:102B90003F934F935F936F937F938F939F93AF93E5
:102BA000BF93EF93FF93E0910003F0910103199518
:102BB000FF91EF91BF91AF919F918F917F916F9115
:102BC0005F914F913F912F910F900BBE0F900FBED1
:102BD0000F901F9018951F920F920FB60F9211240D
:102BE0002F933F938F939F93AF93BF938091E6046E
:102BF0009091E704A091E804B091E9043091E504D4
:102C000023E0230F2D3720F40196A11DB11D05C02F
:102C100026E8230F0296A11DB11D2093E5048093A1
:102C2000E6049093E704A093E804B093E90480914C
:102C3000EA049091EB04A091EC04B091ED040196AC
:102C4000A11DB11D8093EA049093EB04A093EC04C2
:102C5000B093ED04BF91AF919F918F913F912F91D0
:102C60000F900FBE0F901F9018953FB7F89480916A
:102C7000EA049091EB04A091EC04B091ED0426B528
:102C8000A89B05C02F3F19F00196A11DB11D3FBFA4
:102C9000BA2FA92F982F8827820F911DA11DB11D32
:102CA000BC01CD0142E0660F771F881F991F4A952E
:102CB000D1F708958F929F92AF92BF92CF92DF92F9
:102CC000EF92FF926B017C01D0DF4B015C01C114DC
:102CD000D104E104F104F1F024DEC7DFDC01CB0113
:102CE00088199909AA09BB09883E9340A105B10535
:102CF00070F321E0C21AD108E108F10888EE880ECD
:102D000083E0981EA11CB11CC114D104E104F1049C
:102D100021F7DDCFFF90EF90DF90CF90BF90AF9085
:102D20009F908F9008958230910538F0880F991FF9
:102D3000880F991F05970197F1F70895789484B546
:102D4000826084BD84B5816084BD85B5826085BDA7
:102D500085B5816085BDEEE6F0E08081816080838D
:102D6000E1E8F0E010828081826080838081816070
:102D70008083E0E8F0E0808181608083E1EBF0E037
:102D8000808184608083E0EBF0E0808181608083DB
:102D9000E1E9F0E0808182608083808181608083CE
:102DA000E0E9F0E0808181608083E1EAF0E0808109
:102DB00082608083808181608083E0EAF0E08081AE
:102DC00081608083E1E2F1E08081826080838081A4
:102DD00081608083E0E2F1E0808181608083EAE7C6
:102DE000F0E0808184608083808182608083808144
:102DF000816080838081806880831092C100089503
:102E000090E0FC013197E231F10508F04EC08827CF
:102E1000EE58FF4F8F4F0C942A2E809180008F77B1
:102E200003C0809180008F7D809380000895809101
:102E30008000877FF9CF84B58F7702C084B58F7DFE
:102E400084BD08958091B0008F7703C08091B00059
:102E50008F7D8093B0000895809190008F7707C098
:102E6000809190008F7D03C080919000877F809338
:102E7000900008958091A0008F7707C08091A000F6
:102E80008F7D03C08091A000877F8093A00008956C
:102E9000809120018F7707C0809120018F7D03C032
:102EA00080912001877F809320010895CF93DF9345
:102EB00090E0FC01E259FE4F2491FC01EC54FE4FDE
:102EC0008491882361F190E0880F991FFC01E25DF5
:102ED000FD4FC591D491FC01EC5EFD4FA591B491DD
:102EE000611109C09FB7F894888120958223888357
:102EF000EC912E230BC0623061F49FB7F8943881B7
:102F0000822F809583238883EC912E2B2C939FBF57
:102F100006C08FB7F894E8812E2B28838FBFDF91EE
:102F2000CF9108951F93CF93DF93282F30E0F901BD
:102F3000E85DFE4F8491F901E259FE4FD491F90109
:102F4000EC54FE4FC491CC23C1F0162F811158DFF1
:102F5000EC2FF0E0EE0FFF1FEC5EFD4FA591B4915A
:102F60008FB7F894111105C09C91ED2FE095E923DE
:102F700002C0EC91ED2BEC938FBFDF91CF911F91AD
:102F80000895FC01918D228D892F90E0805C9F4FE8
:102F9000821B91098F7399270895FC01918D828D71
:102FA000981731F0828DE80FF11D858D90E008951E
:102FB0008FEF9FEF0895FC01918D828D981761F03E
:102FC000828DDF01A80FB11D5D968C91928D9F5F60
:102FD0009F73928F90E008958FEF9FEF0895FC010B
:102FE000848DDF01A80FB11DA35ABF4F2C91848D92
:102FF00090E001968F739927848FA689B7892C93C7
:10300000A089B1898C9180648C93938D848D981361
:1030100006C00288F389E02D80818F7D808308952A
:10302000CF93DF93EC01888D8823C1F0EA89FB8977
:10303000808185FD05C0A889B9898C9186FD0EC067
:103040000FB607FCF5CF808185FFF2CFA889B9893B
:103050008C9185FFEDCFCE01C2DFE8CFDF91CF911C
:103060000895EF92FF920F931F93CF93DF93EC019C
:1030700081E0888F9B8D8C8D981305C0E889F98934
:10308000808185FD23C0F62E0B8D10E00F5F1F4F52
:103090000F731127E02E8C8DE8120BC00FB607FCC2
:1030A000FACFE889F989808185FFF5CFCE0197DFD6
:1030B000F2CF8B8DFE01E80FF11DE35AFF4FF08236
:1030C0000B8FEA89FB898081806207C0EE89FF89C6
:1030D0006083E889F98980818064808381E090E061
:1030E000DF91CF911F910F91FF90EF900895CF92B4
:1030F000DF92EF92FF921F93CF93DF93EC016A016F
:103100007B01122FE889F98982E080834115514EB5
:1031100061057105B1F060E079E08DE390E0A70111
:1031200096010E94EC2DDA01C9010197A109B109AC
:10313000B695A79597958795AC01411580E15807FD
:10314000A8F0E889F989108260E874E88EE190E0DF
:10315000A70196010E94EC2DBA01A9014150510925
:10316000610971097695679557954795EC85FD85B9
:103170005083EE85FF854083188EEC89FD8910838E
:10318000EA89FB89808180618083EA89FB8980816B
:1031900088608083EA89FB89808180688083EA89EE
:1031A000FB8980818F7D8083DF91CF911F91FF907C
:1031B000EF90DF90CF9008951F920F920FB60F926D
:1031C00011240BB60F922F938F939F93EF93FF933E
:1031D000E091FE04F091FF048081E0910405F091FC
:1031E000050582FD12C09081809107058F5F8F7366
:1031F00020910805821751F0E0910705F0E0E251B7
:10320000FB4F958F8093070501C08081FF91EF915F
:103210009F918F912F910F900BBE0F900FBE0F902B
:103220001F9018951F920F920FB60F9211240BB694
:103230000F922F933F934F935F936F937F938F934F
:103240009F93AF93BF93EF93FF938EEE94E0C7DE0F
:10325000FF91EF91BF91AF919F918F917F916F916E
:103260005F914F913F912F910F900BBE0F900FBE2A
:103270000F901F901895EEEEF4E01382128288EE04
:1032800093E0A0E0B0E084839583A683B7838FE9C1
:1032900093E09183808385EC90E09587848784EC2C
:1032A00090E09787868780EC90E0918B808B81EC13
:1032B00090E0938B828B82EC90E0958B848B86ECF4
:1032C00090E0978B868B118E128E138E148E08953C
:1032D0001F920F920FB60F9211240BB60F922F93DD
:1032E0008F939F93EF93FF93E0919B05F0919C0543
:1032F0008081E091A105F091A20582FD12C090812C
:103300008091A4058F5F8F732091A505821751F0DE
:10331000E091A405F0E0E557FA4F958F8093A4055E
:1033200001C08081FF91EF919F918F912F910F901C
:103330000BBE0F900FBE0F901F9018951F920F920B
:103340000FB60F9211240BB60F922F933F934F930A
:103350005F936F937F938F939F93AF93BF93EF93FD
:10336000FF938BE895E03BDEFF91EF91BF91AF912A
:103370009F918F917F916F915F914F913F912F918D
:103380000F900BBE0F900FBE0F901F901895EBE89B
:10339000F5E01382128288EE93E0A0E0B0E084832F
:1033A0009583A683B7838FE993E0918380838DEC27
:1033B00090E0958784878CEC90E09787868788ECEF
:1033C00090E0918B808B89EC90E0938B828B8AECE0
:1033D00090E0958B848B8EEC90E0978B868B118E92
:1033E000128E138E148E08951F920F920FB60F92A5
:1033F00011240BB60F922F938F939F93EF93FF930C
:10340000E0913806F09139068081E0913E06F09116
:103410003F0682FD12C09081809141068F5F8F73BD
:1034200020914206821751F0E0914106F0E0E85DFC
:10343000F94F958F8093410601C08081FF91EF91F4
:103440009F918F912F910F900BBE0F900FBE0F90F9
:103450001F9018951F920F920FB60F9211240BB662
:103460000F922F933F934F935F936F937F938F931D
:103470009F93AF93BF93EF93FF9388E296E0AFDD06
:10348000FF91EF91BF91AF919F918F917F916F913C
:103490005F914F913F912F910F900BBE0F900FBEF8
:1034A0000F901F901895E8E2F6E01382128288EEE2
:1034B00093E0A0E0B0E084839583A683B7838FE98F
:1034C00093E09183808385ED90E09587848784EDF8
:1034D00090E09787868780ED90E0918B808B81EDDF
:1034E00090E0938B828B82ED90E0958B848B86EDC0
:1034F00090E0978B868B118E128E138E148E08950A
:103500001F920F920FB60F9211240BB60F922F93AA
:103510008F939F93EF93FF93E091D506F091D6069A
:103520008081E091DB06F091DC0682FD12C0908183
:103530008091DE068F5F8F732091DF06821751F036
:10354000E091DE06F0E0EB53F94F958F8093DE06B5
:1035500001C08081FF91EF919F918F912F910F90EA
:103560000BBE0F900FBE0F901F9018951F920F92D9
:103570000FB60F9211240BB60F922F933F934F93D8
:103580005F936F937F938F939F93AF93BF93EF93CB
:10359000FF9385EC96E023DDFF91EF91BF91AF9112
:1035A0009F918F917F916F915F914F913F912F915B
:1035B0000F900BBE0F900FBE0F901F901895E5EC6B
:1035C000F6E01382128288EE93E0A0E0B0E08483FC
:1035D0009583A683B7838FE993E09183808385E306
:1035E00091E09587848784E391E09787868780E3DD
:1035F00091E0918B808B81E391E0938B828B82E3CE
:1036000091E0958B848B86E391E0978B868B118E6E
:10361000128E138E148E08958F929F92AF92BF9246
:10362000CF92DF92EF92FF920F931F93CF93DF938E
:103630007C018B016C0182E0C80ED11C4701E5E0E2
:103640008E0E911CC0E0D0E0F60161916F014AE05E
:1036500050E0C801C6D05C016EE2C80167D08A0D97
:103660009B1DC80FD91FC814D90471F74AE050E058
:10367000F7016581C801B5D08C0F9D1FDF91CF91F7
:103680001F910F91FF90EF90DF90CF90BF90AF9080
:103690009F908F900895E2E6F7E08FEA93E09183A0
:1036A000808312821382148215820895CF92DF9252
:1036B000EF92FF920F931F93CF93DF936C017A01E8
:1036C0008B01C0E0D0E0CE15DF0589F0D8016D9107
:1036D0008D01D601ED91FC910190F081E02DC601A4
:1036E0001995892B11F47E0102C02196ECCFC701F8
:1036F000DF91CF911F910F91FF90EF90DF90CF90CE
:1037000008956115710579F0FB0101900020E9F73A
:103710003197AF01461B570BDC01ED91FC91028004
:10372000F381E02D199480E090E00895DC01ED91A3
:10373000FC910190F081E02D19944F925F926F926D
:103740007F92EF92FF920F931F93CF93DF93CDB7AA
:10375000DEB7A1970FB6F894DEBF0FBECDBF7C01D8
:10376000FA01CB0119A2223008F42AE08E010F5D84
:103770001F4F422E512C612C712CBF01A3019201CD
:103780000E94EC2DF901CA01015011096A3014F4AC
:10379000605D01C0695CD8016C93232B242B252B21
:1037A00061F7B801C701ADDFA1960FB6F894DEBF8F
:1037B0000FBECDBFDF91CF911F910F91FF90EF9082
:1037C0007F906F905F904F9008952115310541F4DF
:1037D000DC01ED91FC910190F081E02D642F1994B2
:1037E000ACCF9A01462F50E060E070E0EECF4F92F0
:1037F0005F926F927F92AF92BF92CF92DF92EF92E1
:10380000FF920F931F93CF93DF93CDB7DEB72901BC
:103810003A019B01AC0124193509460957098A89E7
:103820009B89AC89BD89BC01CD016A197B098C09D2
:103830009D090E94AA2DA80197012419350946095E
:1038400057090E940E2ECA01B9016A0D7B1D8C1DFD
:103850009D1DDF91CF911F910F91FF90EF90DF9011
:10386000CF90BF90AF907F906F905F904F900895F2
:1038700040E855E260E070E080E090E000C0813018
:10388000910571F01CF4892B39F00895823091056F
:1038900059F0039769F0089526E08EEE94E00BC08E
:1038A00026E08BE895E007C026E088E296E003C0BA
:1038B00026E085EC96E01BCC70E090E09C01220FA6
:1038C000331F820F931F8859984F0C94662A70E01B
:1038D00090E09C01220F331F820F931F8859984F4D
:1038E0000C94A02A88E697E00C949D291F920F92D1
:1038F0000FB60F9211240BB60F922F933F934F9355
:103900005F936F937F938F939F93AF93BF93EF9347
:10391000FF938BEC93EF90938500809384000E943B
:10392000FB2AFF91EF91BF91AF919F918F917F9172
:103930006F915F914F913F912F910F900BBE0F9020
:103940000FBE0F901F9018958BEC93EF909385000E
:1039500080938400AFE6B0E08C918E7F8C93E0E89A
:10396000F0E080818C7F8083E1E8F0E08081877ED9
:10397000808380818560808380818D7F80838C912E
:1039800081608C930895EFE6F0E080818E7F8083E4
:10399000089581E008956F927F928F929F92AF92E7
:1039A000BF92CF92DF92EF92FF920F931F93CF932C
:1039B000DF935C017B014A0101E010E00E151F0559
:1039C00064F568018FEFC81AD80AE801CC0FDD1F33
:1039D000C80DD91D6880798061147104E1F061EB34
:1039E00073E0C3010E94A22F892B19F41982188257
:1039F00012C064EB73E0C3010E94A22F892B59F41B
:103A0000CE14DF0441F06801E2E0CE0ED11C198231
:103A100018821B821A828601D1CF81E0F501808352
:103A2000B401C7010E947227F5019283818380E06F
:103A300090E0DF91CF911F910F91FF90EF90DF9079
:103A4000CF90BF90AF909F908F907F906F90089590
:103A50008BE697E0089580E008950F931F93CF932E
:103A6000DF938B01BA01E901198218829801012EB6
:103A7000000C440B550BFC01818192810E944D1476
:103A8000019621F01983088380E001C081E0DF9175
:103A9000CF911F910F9108950F931F93CF93DF93B1
:103AA0001F921F92CDB7DEB7FB018A01B9019E01BB
:103AB0002F5F3F4FAF01FC01818192810E948927D6
:103AC000019639F089819A81F8019183808380E0A1
:103AD00001C081E00F900F90DF91CF911F910F9166
:103AE0000895FC01808108950895089581E0FB0107
:103AF000808380E008950895109295070895FC0151
:103B0000818192810C946727CF93DF93CDB7DEB785
:103B10002A970FB6F894DEBF0FBECDBFAC01CB0124
:103B200060E070E049835A836B837C83092E000C2C
:103B3000AA0BBB0B8D839E83AF83B8879E01275F43
:103B40003F4FAE014F5F5F4F68E070E080918407A8
:103B50009091850782DF811108C081E029853A852F
:103B60002830310519F480E001C081E02A960FB6B3
:103B7000F894DEBF0FBECDBFDF91CF9108950F93B4
:103B80001F93CF93DF931F921F92CDB7DEB78B01A8
:103B90009E012F5F3F4FAC01809184079091850774
:103BA0005CDF811108C081E029813A81201731074B
:103BB00019F480E001C081E00F900F90DF91CF9168
:103BC0001F910F910895CF93DF93EC011092880716
:103BD000109287071092940710929307AC0160E04F
:103BE00070E0CB010E94BC0DAE0161E070E080E0AE
:103BF00090E00E94BC0D8091840790918507DF9131
:103C0000CF9179CF4F925F926F927F928F929F92D6
:103C1000AF92BF92CF92DF92EF92FF920F931F93DA
:103C2000CF93DF931F921F92CDB7DEB79C016C013B
:103C300097FF03C087E0C80ED11C43E0D594C7941A
:103C40004A95E1F7C90168E070E00E94D92D7C0136
:103C500089010E5F1F4F8091820790918307801723
:103C600091070CF0DCC0809180079091810700974C
:103C700031F00E94FA2E1092830710928207C80139
:103C80000E94652E9093810780938007892B29F0ED
:103C90001093830700938207C2C0A12CB12CAC14EF
:103CA000BD040CF05EC0412C512C320100E010E04C
:103CB00098012757384FAE014F5F5F4F61E070E0CA
:103CC0008091840790918507E7DE811198C18981F1
:103CD0009A812FEF421A520A620A720A20E94216AA
:103CE0002FE5520621E0620671043CF060919307D3
:103CF000709194078DEE90E02DC0080F191F0A30C7
:103D0000110551F549E050E060E070E089E897E086
:103D10000E94142860919307709194078823C1F042
:103D20008091910790E06817790709F0B8CF8EEE7F
:103D300090E0EADE8091930790919407019699278D
:103D400090939407809393078FEFA81AB80AA7CF90
:103D50008FEE90E0D9DEA7CF0A3011050CF4A8CF82
:103D60009ECFEF2809F44BC1C12CD12C760100E085
:103D700010E098012757384FAE014F5F5F4F61E069
:103D800070E0809184079091850786DE811137C1AC
:103D900089819A812FEFC21AD20AE20AF20A20E937
:103DA000C2162FE5D20621E0E206F1043CF0609154
:103DB0009307709194078DEE90E02AC0080F191FA9
:103DC0000A30110539F549E050E060E070E089E81B
:103DD00097E00E94142860919307709194078823BC
:103DE000A9F08091910790E06817790709F007C161
:103DF0008EEE90E089DE8091930790919407019672
:103E000099279093940780939307F9C08FEE90E0E1
:103E10007BDEAACF0A3011050CF4ABCFF0C000E076
:103E200010E00C151D050CF077C0412C512C32010F
:103E3000A12CB12C480193E0880C991C9A95E1F7CC
:103E40002091800730918107C4018A0D9B1D280FA6
:103E5000391FAE014F5F5F4F61E070E080918407D2
:103E60009091850719DE8111CAC089819A812FEF4F
:103E7000421A520A620A720A20E942162FE55206D5
:103E800021E0620671043CF0609193077091940701
:103E90008DEE90E034C0A80EB91E8AE0A816B104D9
:103EA000A9F549E050E0B401809180079091810725
:103EB0000E94142860919307709194078823E9F079
:103EC0008091800790918107FC01E80DF91D8085A4
:103ED00090E06817790709F0A4CF8EEE90E014DE29
:103EE0008091930790919407019699279093940756
:103EF000809393070F5F1F4F94CF8FEE90E004DE07
:103F0000412C512C3201A12CB12C9ACF2AE0A216BF
:103F1000B1040CF495CF85CFE114F10409F46AC023
:103F2000680183E0CC0CDD1C8A95E1F7812C912C93
:103F3000540100E010E098012757384FAE014F5F61
:103F40005F4F61E070E08091840790918507A4DD68
:103F5000811155C089819A812FEF821A920AA20A93
:103F6000B20A20E982162FE5920621E0A206B104EA
:103F70003CF060919307709194078DEE90E034C00F
:103F8000080F191F0A30110589F549E050E060E07B
:103F900070E089E897E00E9414286091930770917F
:103FA00094078823F9F08091910790E068177907CA
:103FB00009F58EEE90E0A8DD809180079091810751
:103FC000A70169E877E08C0D9D1D0E94922F8091DA
:103FD0009307909194070196992790939407809363
:103FE000930708C08FEE90E08FDDA0CF0A30110557
:103FF0000CF4A1CF809180079091810702C080E0EE
:1040000090E00F900F90DF91CF911F910F91FF9053
:10401000EF90DF90CF90BF90AF909F908F907F9068
:104020006F905F904F900895CF92DF92EF92FF9242
:104030000F931F93CF93DF931F92CDB7DEB76C0121
:104040007B018A01452B31F0AB0160E070E0C801D3
:10405000E7D78983B701C60157DD81110DC001156E
:10406000110551F0B701C8018ADD811105C061E079
:1040700070E0CE01019683DD0F90DF91CF911F910B
:104080000F91FF90EF90DF90CF900895CF92DF9245
:10409000EF92FF92CF93DF93CDB7DEB728970FB69D
:1040A000F894DEBF0FBECDBF6B01E12CF12CC982AD
:1040B000DA82EB82FC822D833E834F835887AE01E8
:1040C0004F5F5F4F68E070E0AFDF28960FB6F8945F
:1040D000DEBF0FBECDBFDF91CF91FF90EF90DF909D
:1040E000CF9008950F931F93CF93DF93EC018B0133
:1040F000AFDC9093850780938407009739F0A8017F
:10410000BE0149DCEC01892B19F40BC0C0ECD3E0F3
:104110008091840790918507E7DC109285071092C3
:104120008407CE01DF91CF911F910F910895809167
:10413000840790918507D5CC2F923F924F925F9242
:104140006F927F928F929F92AF92BF92CF92DF92A7
:10415000EF92FF920F931F93CF93DF93CDB7DEB70C
:1041600069970FB6F894DEBF0FBECDBF20918807C8
:10417000222309F426C25D8B4C8B688B798B8A8B4A
:104180009B8B9A01AB01BC01CE0101960E94BC122F
:1041900010E038E0232E312C89819A8118161906F7
:1041A0000CF00AC21F861E861D861C8689819A8194
:1041B000AC85BD85A817B9070CF0F3C1EB81FC8174
:1041C0002E853F85E20FF31F2081318130937F07D9
:1041D00020937E078481958190937D0780937C074F
:1041E0004281538150937B0740937A0746815781E0
:1041F0005093790740937807820F931F9C01990F82
:10420000440B550B2E8B3F8B488F598FC12CD12CD3
:1042100076012E893F89488D598DC216D306E40652
:10422000F50608F0A2C11F8260917E0770917F079A
:104230008B01072E000C220B330BD701C60104960D
:10424000A11DB11D80179107A207B30728F4E091C3
:104250007A07F0917B070AC0E4E0F0E0E61BF70B79
:10426000EC0DFD1D8091780790917907E80FF91FFB
:104270004080512C612C712CD701C6010596A11DDF
:10428000B11D80179107A207B30728F4E0917A07C0
:10429000F0917B070AC0E5E0F0E0E61BF70BEC0DC0
:1042A000FD1D8091780790917907E80FF91F8081B3
:1042B000582AD701C6010696A11DB11D8017910786
:1042C000A207B30728F4E0917A07F0917B070AC0B0
:1042D000E6E0F0E0E61BF70BEC0DFD1D80917807A2
:1042E00090917907E80FF91F8081682AD701C601EC
:1042F0000796A11DB11D80179107A207B30728F4E7
:10430000E0917A07F0917B070AC0E7E0F0E0E61B56
:10431000F70BEC0DFD1D8091780790917907E80F60
:10432000F91F8081782A4601570148E0840E911CCC
:10433000A11CB11C081519052A053B0508F4B4C0D9
:10434000C016D106E206F30638F480917A07909100
:104350007B078C0D9D1D09C0C601861B970B209104
:10436000780730917907820F931F68E070E007DCCF
:10437000E0917E07F0917F079F010F2E000C440B08
:10438000550BD301C201880D991DAA1DBB1D28170D
:1043900039074A075B07C8F082169306A406B506DC
:1043A00038F420917A0730917B07C601089609C03E
:1043B000C1018E1B9F0B8C0D9D1D209178073091A4
:1043C0007907820F931FB20199C08601BF0168501F
:1043D00071096C197D0982169306A406B50638F496
:1043E00020917A0730917B07C601089609C0C10168
:1043F0008E1B9F0B8C0D9D1D2091780730917907A6
:10440000820F931FBCDB80917E0790917F07B101E3
:10441000681B790B600F711F640D751D8091780703
:1044200090917907ACDB80917E0790917F07AC017A
:1044300048505109FA01E01BF10BAC01092E000CA8
:10444000660B770B84169506A606B70638F42091FE
:104450007A0730917B07C60108960AC09101281B94
:10446000390BC9018C0D9D1D20917807309179077A
:10447000820F931FAF0160E070E0D2D58F8320914F
:104480007E0730917F07A101421B530B9A01200F39
:10449000311F240D351D40E050E0682F80917807D2
:1044A00090917907A9D550C0C016D106E206F3064F
:1044B000C8F46C197D0980917A0790917B078C0D67
:1044C0009D1D5DDB80917E0790917F07B101681B88
:1044D000790B6C0D7D1D640D751D80917807909191
:1044E00079070CC0C601861B970B20917807309185
:1044F0007907B201685F7F4F820F931F40DB809185
:104500007E0790917F07AC01092E000C660B770B9C
:1045100084169506A606B70638F420917A073091DE
:104520007B07C60108960AC0D101A81BB90BCD01B3
:104530008C0D9D1D2091780730917907820F931F74
:10454000A20160E070E06CD58F8361E070E0CE0185
:10455000079615DB182FB8E04B0E511C611C711C1F
:10456000C40CD51CE61CF71C54CE8C859D85880F89
:10457000991FED81FE81E80FF91F488959896A89E1
:104580007B89808191810E94EE0D4C855D854F5F16
:104590005F4F5D874C878E859F8508969F878E87A6
:1045A00005CE2C893D89488959896A897B89CE0144
:1045B00001960E94BC12F0CD112319F08C899D89BF
:1045C00002DB69960FB6F894DEBF0FBECDBFDF9158
:1045D000CF911F910F91FF90EF90DF90CF90BF9000
:1045E000AF909F908F907F906F905F904F903F9093
:1045F0002F900895CF93DF93EC01AC0160E070E061
:10460000CB019ADDAE0161E070E080E090E0DF91E7
:10461000CF9192CDCF9380918407909185071BDA3B
:10462000C82F81110BC060E070E0CB010E94C4086C
:1046300061E070E080E090E00E94C4088C2FCF9190
:1046400008950F931F9389019A01AB01BC018091DA
:1046500084079091850749DA1F910F9108953F9241
:104660004F925F926F927F928F929F92AF92BF9282
:10467000CF92DF92EF92FF920F931F93CF93DF932E
:10468000CDB7DEB767970FB6F894DEBF0FBECDBFCC
:104690006C017B015A0180918807882331F0809159
:1046A0008807882309F45FC30AC068E877E080912F
:1046B0008407909185071ADA811155C3F0CF809154
:1046C00087071A821982882309F46AC0E0E94E2E0E
:1046D000EFE55E2E66246394712C00E010E09801F3
:1046E0002259384FAE014F5F5F4F61E070E080911B
:1046F000840790918507D0D9982E81114DC089816A
:104700009A81080F191F0115110509F445C081E0B0
:10471000481A51086108710839F460919307709143
:1047200094078DEE90E030C00A30110589F549E01C
:1047300050E060E070E08EE697E076D460919307F9
:10474000709194078823F1F08091760790E06817C4
:104750007907D9F48EEE90E0D7D988E0EEE6F7E05D
:10476000DE01199601900D928A95E1F72091930749
:10477000309194072F5F3F4F332730939407209356
:1047800093070AC08FEE90E0BFD91A82198204C045
:104790000A3011050CF4A3CF81E029813A8124C0AD
:1047A00000E010E078E0672E712C29E030E02C0F5B
:1047B0003D1F200F311FAE014F5F5F4FB301601BE4
:1047C000710B809184079091850766D9982E298175
:1047D0003A81811108C0020F131F0115110519F04C
:1047E0000830110514F381E0121613060CF080E076
:1047F0009110B6C2882309F4B6C28091870781114F
:1048000004C019861A861B861C8689859A85AB8505
:10481000BC858031910508F0A6C2FC018827EC57C1
:10482000FF4F8F4F0C942A2ED6011696ED91FC91D6
:10483000179780819181A281B38189839A83AB8309
:10484000BC83AE014F5F5F4F64E070E085E190E0B4
:104850007FC18D859E85D6D9009731F42FEF3FEF2C
:10486000A90161E070E00EC0FC0180809180A2800F
:10487000B380A701C501B4010E94670DA501940191
:1048800060E070E08DE190E069C28D859E85BAD9C7
:10489000009721F42FEF3FEFA90110C0DC018D90AC
:1048A0009D90AD90BD90AD0195018401B701C60109
:1048B0000E94090AA5019401882319F061E070E0C3
:1048C00002C060E070E08BE190E048C28D859E857B
:1048D00099D9009721F42FEF3FEFA9010FC0FC01F8
:1048E00081909190A190B190BF01A5019401C60162
:1048F0000E940C0CA5019401882319F061E070E07E
:1049000002C060E070E08CE190E028C2D60114960D
:10491000ED91FC91159700811181F80182809380BF
:10492000A080B18060E1462E512C612C712C49820F
:104930005A826B827C8288E090E0A0E0B0E08D83B8
:104940009E83AF83B8879E012F5E3F4FAE014F5FBE
:104950005F4F68E070E080918407909185077DD873
:10496000882319F000E010E0BBC089899A89089774
:10497000C9F7D801ED90FC90B8E0EB0EF11CEE0CFD
:10498000FF1CEE0CFF1CC7010E94652E8C01892BB9
:1049900049F349825A826B827C82C7010F2C000C3A
:1049A000AA0BBB0B8D839E83AF83B8879E012F5EBE
:1049B0003F4FAE014F5F5F4F68E070E0809184072A
:1049C000909185074AD881118BC089899A89089767
:1049D00009F086C0D6011296ED91FC9113974081A3
:1049E000518162817381D8014D935D936D937C9366
:1049F0001397448155816681778114964D935D9319
:104A00006D937C93179740855185628573851896C1
:104A10004D935D936D937C931B9784859585A685B7
:104A2000B785F80184879587A687B787108A118A8A
:104A3000128A138A84E090E0A0E0B0E0848B958B2A
:104A4000A68BB78B8091F0029091F102A0E0B0E0CC
:104A5000808F918FA28FB38FC5010B2C000CAA0BF6
:104A6000BB0B848F958FA68FB78FF401D8019096DA
:104A700080E090E08A159B0554F44191519160E0EB
:104A800070E04D935D936D937D930196F3CF9E01FE
:104A90002F5E3F4FA801B701809184079091850751
:104AA0000E942D1D81111CC089899A898E159F0530
:104AB000B9F4A70160E070E0C801B2D28B8B9E010F
:104AC0002F5E3F4FAE014D5E5F4F61E070E0809121
:104AD0008407909185070E942D1D81E080938707B0
:104AE000C80167960FB6F894DEBF0FBECDBFDF9149
:104AF000CF911F910F91FF90EF90DF90CF90BF90DB
:104B0000AF909F908F907F906F905F904F903F906D
:104B10000C94FA2E8D859E85AF85B8890097A105E6
:104B2000B10521F481E0809386071DC16BD8009701
:104B300089F481E090E0A0E0B0E089839A83AB83C0
:104B4000BC83AE014F5F5F4F64E070E082E190E0B4
:104B50006BDA09C1BC01C6010E94170819821A82CA
:104B60001B821C82AE014F5F5F4F64E070E082E108
:104B700090E05ADA8111F7C0D5CFD6011496ED91A5
:104B8000FC9115970190F081E02D008511858FEF44
:104B900089830115110509F472C0D8016D907C90CC
:104BA000A280B38020E030E060E070E080E090E040
:104BB000861597050CF5F801A281B381A20FB31FEA
:104BC0001296ED91FC911397EE0FFF1FEA0DFB1D5E
:104BD0000190F081E02D16960D90BC91A02DEA9FDA
:104BE000A001EB9F500DFA9F500D1124640F751F0B
:104BF0000196285F3F4FDCCF83E190E00E94841D47
:104C00008111B1C0C12CD12CE12CF12CE614F70498
:104C10007CF5D8011296ED91FC911397EC0DFD1DDA
:104C200080809180A281B381AA0FBB1FAA0DBB1DFA
:104C30002D913C9186819781289F2001299F500CBE
:104C4000389F500C1124B201C4010E94BF1D382EA0
:104C5000920140E050E06981C401CED18983B8E07F
:104C6000CB0ED11C31107FC0EFEFEE1AFE0ACECF73
:104C700061E070E0CE0101960E94BF1D74C060E04B
:104C800070E083E190E00E94841D6DC040E050E040
:104C900060E070E081E190E0C7D9811164C0812CAF
:104CA000912C5401C501B4010E94F0098091E204E5
:104CB000882321F0A701C501B4013EDAA701C5018F
:104CC000B4010E94F0088A9489288A288B2829F048
:104CD000812C912C54018394E5CF10928807109277
:104CE0008707109294071092930780918407909100
:104CF00085070E947C1D37C081E090E09093E4041A
:104D00008093E30440E050E060E070E086E190E0F2
:104D10001FCF81E0D5018C9326C08D859E850E9492
:104D2000021E009731F42FEF3FEFA90161E070E020
:104D300013C0FC012081318142815381CA01B90134
:104D40002C8B3D8B4E8B5F8B0E94C70D2C893D8930
:104D50004E895F8960E070E08EE190E097D903C0F2
:104D6000C7010E94E31D67960FB6F894DEBF0FBE21
:104D7000CDBFDF91CF911F910F91FF90EF90DF900A
:104D8000CF90BF90AF909F908F907F906F905F90EB
:104D90004F903F900895CF92DF92EF92FF92CF9382
:104DA000DF93EC01C12CD12C7601C701B6010E9422
:104DB000F009AE01C701B601BFD9AE01C701B60106
:104DC0000E94F0088091800790918107009731F050
:104DD0000E94FA2E1092810710928007CA94CD2863
:104DE000CE28CF2829F0C12CD12C7601C394DDCF59
:104DF00080918707882359F040E050E060E070E040
:104E000084E190E011D9F82E1092870701C0F12CAF
:104E100080918807882341F01092880781E090E014
:104E20009093F1028093F00280918407909185071E
:104E30000E947F1D80918407909185070E94741DB8
:104E40008F2DDF91CF91FF90EF90DF90CF9008955D
:104E5000CF93DF93EC01AC0160E070E0CB010E94E6
:104E60002D12AE0161E070E080E090E0DF91CF9123
:104E70000C942D1260E070E0CB010E94991261E069
:104E800070E080E090E00C949912CF92DF92EF9264
:104E9000FF920F931F93CF93DF93EC016A017B0185
:104EA00000E010E098010E94170E01E010E020E001
:104EB00030E0B701A601CE010E94170EDF91CF911D
:104EC0001F910F91FF90EF90DF90CF9008950E9477
:104ED000C31C68EE73E080E090E00E945A1680E008
:104EE00090E0089526E040E050E16EE070E08EEE44
:104EF00094E00E9477188EEE94E00E94C117892BEF
:104F000029F08EEE94E00E94DB17F5CF80E090E070
:104F10000895AF92BF92CF92DF92EF92FF920F93DC
:104F20001F93CF93DF931F921F92CDB7DEB77A0105
:104F30008901F901118210828EEE94E069837A83EF
:104F40000E94C11769817A81892B99F15B01DD2467
:104F5000D39485E6C82E80919507811124C08EEEEA
:104F600094E00E94DB1785369105A9F7D09295074A
:104F7000F501C1925F01F8018081918101969183D1
:104F80008083E9CF8EEE94E00E94DB178F3FFFEF26
:104F90009F0749F0F50181935F01F80180819181BC
:104FA000019691838083F801808191818E159F0500
:104FB00048F380E090E00F900F90DF91CF911F9128
:104FC0000F91FF90EF90DF90CF90BF90AF9008953A
:104FD0000F931F93CF93DF93EA0189018EEE94E044
:104FE0000E94561BF801D183C08380E090E0DF91DE
:104FF000CF911F910F910895DC01A40FB51F240FCD
:10500000351FAD01481B590B4217530738F4ED917A
:10501000E627F0E0E85BFD4F6491F3CF862F08951B
:105020009A01AB016FEFE8CFCF93FC01E60FF71FBA
:10503000E40FF51FC081F4DF91E0C81390E0892FE1
:10504000CF910895CF92DF92EF92FF920F931F932B
:10505000CF93DF936C018B017A01EC01C956D84FD5
:10506000888187FF04C0FB011182108224C08CE07C
:105070008C9D90018D9D300D11248881A901480FD0
:10508000511D87FD5A958091960790E04817590762
:1050900094F48881A901480F511D87FD5A95CA01D2
:1050A000FA01EE0FFF1F8E0F9F1FFC01E556F84F10
:1050B000808186FD19C088818F5F88838CE08C9DFC
:1050C00090018D9D300D11248881A901480F511D3B
:1050D00087FD5A958091960790E048175907BCF4D0
:1050E00088818C3044F113C08881280F311D87FDE1
:1050F0003A95F901EE0FFF1F2E0F3F1FF901E556FC
:10510000F84F808160E08F730E949217D4CFF8012E
:1051100080819181049680349C4918F480E49CE954
:1051200004C0F801808191810496F7019183808306
:105130008FEF888345C0F801408151818881B90192
:10514000680F711D87FD7A95CB01FB01EE0FFF1FE4
:105150008E0F9F1FFC01E556F84F81819281840FCD
:10516000951FF701918380838881A901480F511D04
:1051700087FD5A95CA01FA01EE0FFF1F8E0F9F1F80
:10518000FC01E556F84F808186FF1AC08881280F00
:10519000311D87FD3A95F901EE0FFF1F2E0F3F1FBE
:1051A000F901E556F84F808161E08F73DF91CF916F
:1051B0001F910F91FF90EF90DF90CF900C9492177A
:1051C000DF91CF911F910F91FF90EF90DF90CF90E3
:1051D00008951F920F920FB60F9211240BB60F92E3
:1051E0002F933F934F935F936F937F938F939F93EF
:1051F000AF93BF93EF93FF9348E850E064E870E00B
:1052000081E090E01FDFFF91EF91BF91AF919F91FF
:105210008F917F916F915F914F913F912F910F905F
:105220000BBE0F900FBE0F901F9018951F920F92FC
:105230000FB60F9211240BB60F922F933F934F93FB
:105240005F936F937F938F939F93AF93BF93EF93EE
:10525000FF9348E950E064E970E082E090E0F2DE1C
:10526000FF91EF91BF91AF919F918F917F916F913E
:105270005F914F913F912F910F900BBE0F900FBEFA
:105280000F901F9018951F920F920FB60F92112436
:105290000BB60F922F933F934F935F936F937F9330
:1052A0008F939F93AF93BF93EF93FF9348EA50E0A0
:1052B00064EA70E083E090E0C5DEFF91EF91BF917A
:1052C000AF919F918F917F916F915F914F913F919E
:1052D0002F910F900BBE0F900FBE0F901F9018953F
:1052E0001F920F920FB60F9211240BB60F922F93AD
:1052F0003F934F935F936F937F938F939F93AF935E
:10530000BF93EF93FF9348E251E064E271E080E0E5
:1053100090E098DEFF91EF91BF91AF919F918F91B7
:105320007F916F915F914F913F912F910F900BBEA5
:105330000F900FBE0F901F901895FC01909196074B
:105340009033A0F481E0890F809396079083892F92
:1053500090E0FC01EE0FFF1F8E0F9F1FFC01E55632
:10536000F84F88EB9BE09283818308958FEF8083D1
:105370000895DF92EF92FF920F931F93CF93DF93E5
:10538000EC01D62E7A0189018881803308F069C04A
:1053900061E08D2D0E9456178881E82FF0E09F0173
:1053A000220F331FE20FF31FE556F84F9D2D9F7319
:1053B0002081207CD22ED92AD08260E272E0AB011B
:1053C0004E195F0957FF02C04D5F5F4F55954795D6
:1053D00055954795498340E659E09A01201B310BCA
:1053E00037FF02C02D5F3F4F35952795359527959F
:1053F0002A836CE0BED39CE0899FB001112440E079
:1054000050E09A01260F371FF901EE0FFF1F2E0FF4
:105410003F1FF901E556F84F908196FD16C04F5F8A
:105420005F4F4C30510569F7813021F510928000B3
:1054300082E0809381001092850010928400B19ADE
:1054400080916F00826080936F00E881F0E0CF016F
:10545000880F991FE80FF91FE556F84F8081806487
:1054600080838881DF91CF911F910F91FF90EF9002
:10547000DF900895823061F4109290008093910043
:10548000109295001092940088BB80937100DDCF3C
:10549000833069F41092A00082E08093A100109202
:1054A000A5001092A40089BB80937200CECF811119
:1054B000CCCF1092200182E080932101109225012F
:1054C000109224018ABB80937300BFCF20E639E09D
:1054D00040E252E04ECFFC019081903380F5818113
:1054E00028E830E0281B310987FD3395220F331F50
:1054F000220F331F621773077CF0828128E532E0A8
:10550000281B310987FD3395220F331F220F331FCC
:10551000621773070CF49B0122503109220F331FCD
:105520004FB7F894892F90E0FC01EE0FFF1F8E0F0C
:105530009F1FFC01E556F84F328321834FBF08952A
:10554000AF92BF92CF92DF92EF92FF920F931F9391
:10555000CF93DF93EC01603282E078070CF03FC01C
:1055600077FD06C0653B71052CF064EB70E002C06E
:1055700060E070E0898128E830E05901A81AB1089C
:1055800087FDB394AA0CBB1CAA0CBB1C0B2C000CF3
:10559000CC08DD08072E000C880B990B2A8108E542
:1055A00012E0021B110927FD1395000F111F000FB8
:1055B000111F012E000C220B330B3F932F931F93CF
:1055C0000F9314EBE12EF12C00E010E020E030E02E
:1055D000A9010E94F71B0F900F900F900F90CE0122
:1055E000DF91CF911F910F91FF90EF90DF90CF90BF
:1055F000BF90AF9070CF80912C0891E0980F90935E
:105600002C08882349F021E030E030932E082093C5
:105610002D0880932C08089578940E940504F8942E
:1056200080912C08815080932C080C943D14FF929B
:105630000F931F93CF93DF931F921F92CDB7DEB7C7
:10564000FF24F394FA820E949E160E94381C009157
:10565000990310919A03F8011182108260E070E0C2
:1056600080E090E00E9446140E9417067894C801DA
:1056700082960E94451481E090E00E9441141982B4
:10568000AE014F5F5F4F61E070E0F801828193816E
:105690000E94EB138981882311F0F801F6A20E9481
:1056A0004C14F8940E94A41CF80180819181892BEC
:1056B00019F481E096A1911180E08A83789478941E
:1056C000FF24F3948A81882371F11982AE014F5F20
:1056D0005F4F61E070E0F801828193810E9427149E
:1056E0008981882311F0F801F6A2F8018081918167
:1056F000892B31F481E096A1911103C080E001C0B3
:1057000081E080932B0890912B0881E0911180E03B
:105710008A838A81882319F00E94C91C02C080E014
:1057200090E08A83CFCF81E090E00E9443140E94F2
:10573000E306F89480E090E00F900F90DF91CF9116
:105740001F910F91FF9008955058BB27AA270ED0A4
:1057500049C13AD130F03FD120F031F49F3F11F4EC
:105760001EF42FC10EF4E095E7FBFCC0E92F4BD1EE
:1057700080F3BA17620773078407950718F071F46E
:105780009EF57AC10EF4E0950B2EBA2FA02D0B01D9
:10579000B90190010C01CA01A0011124FF27591B76
:1057A00099F0593F50F4503E68F11A16F040A22F7C
:1057B000232F342F4427585FF3CF469537952795ED
:1057C000A795F0405395C9F77EF41F16BA0B620BEC
:1057D000730B840BBAF09150A1F0FF0FBB1F661F33
:1057E000771F881FC2F70EC0BA0F621F731F841F76
:1057F00048F4879577956795B795F7959E3F08F09C
:10580000B3CF9395880F08F09927EE0F979587955A
:10581000089584D008F481E0089504D06894B1110B
:105820002CC10895F8D088F09F5790F0B92F992790
:10583000B751A0F0D1F0660F771F881F991F1AF09B
:10584000BA95C9F712C0B13081F016D1B1E0089510
:1058500013C1672F782F8827B85F39F0B93FCCF391
:10586000869577956795B395D9F73EF49095809591
:10587000709561957F4F8F4F9F4F0895E89409C0B1
:1058800097FB3EF490958095709561957F4F8F4F73
:105890009F4F9923A9F0F92F96E9BB279395F69589
:1058A000879577956795B795F111F8CFFAF4BB0F07
:1058B00011F460FF1BC06F5F7F4F8F4F9F4F16C06B
:1058C000882311F096E911C0772321F09EE8872FF5
:1058D000762F05C0662371F096E8862F70E060E0B1
:1058E0002AF09A95660F771F881FDAF7880F96952A
:1058F000879597F90895A9D080F09F3740F49111CA
:105900000EF0BBC060E070E080E89FEB089526F4E5
:105910001B16611D711D811D2BC045C0990F00080C
:10592000550FAA0BE0E8FEEF16161706E807F90771
:10593000C0F012161306E407F50798F0621B730B0C
:10594000840B950B39F40A2661F0232B242B252B8D
:1059500021F408950A2609F4A140A6958FEF811D30
:10596000811D089597F99F6780E870E060E00895D1
:10597000882371F4772321F09850872B762F07C066
:10598000662311F499270DC09051862B70E060E0DA
:105990002AF09A95660F771F881FDAF7880F969579
:1059A000879597F908959F3F31F0915020F487959E
:1059B00077956795B795880F911D9695879597F977
:1059C00008959FEF80EC089500240A941616170698
:1059D00018060906089500240A94121613061406E0
:1059E00005060895092E0394000C11F4882352F043
:1059F000BB0F40F4BF2B11F460FF04C06F5F7F4FFB
:105A00008F4F9F4F089557FD9058440F551F59F0E1
:105A10005F3F71F04795880F97FB991F61F09F3F9B
:105A200079F087950895121613061406551FF2CFC4
:105A30004695F1DF08C0161617061806991FF1CF14
:105A400086957105610508940895E5DFA0F0BEE72D
:105A5000B91788F4BB279F3860F41616B11D672F5D
:105A6000782F8827985FF7CF869577956795B11D32
:105A700093959639C8F30895E894BB27662777274E
:105A8000CB0197F908954ADF08F48FEF08950BD002
:105A9000A9CF9ADF28F09FDF18F0952309F062CF95
:105AA00090CF1124EACFAFDFA0F3959FD1F3950FEC
:105AB00050E0551F629FF001729FBB27F00DB11D92
:105AC000639FAA27F00DB11DAA1F649F6627B00D22
:105AD000A11D661F829F2227B00DA11D621F739F0B
